{
  "_format": "hh-sol-artifact-1",
  "contractName": "Transactions",
  "sourceName": "contracts/Transactions.sol",
  "abi": [
    {
      "anonymous": false,
      "inputs": [
        {
          "indexed": false,
          "internalType": "address",
          "name": "from",
          "type": "address"
        },
        {
          "indexed": false,
          "internalType": "address",
          "name": "receiver",
          "type": "address"
        },
        {
          "indexed": false,
          "internalType": "uint256",
          "name": "amount",
          "type": "uint256"
        },
        {
          "indexed": false,
          "internalType": "string",
          "name": "message",
          "type": "string"
        },
        {
          "indexed": false,
          "internalType": "uint256",
          "name": "timestamp",
          "type": "uint256"
        },
        {
          "indexed": false,
          "internalType": "string",
          "name": "keyword",
          "type": "string"
        }
      ],
      "name": "Transfer",
      "type": "event"
    },
    {
      "inputs": [
        {
          "internalType": "address payable",
          "name": "receiver",
          "type": "address"
        },
        {
          "internalType": "uint256",
          "name": "amount",
          "type": "uint256"
        },
        {
          "internalType": "string",
          "name": "message",
          "type": "string"
        },
        {
          "internalType": "string",
          "name": "keyword",
          "type": "string"
        }
      ],
      "name": "addToBlockchain",
      "outputs": [],
      "stateMutability": "nonpayable",
      "type": "function"
    },
    {
      "inputs": [],
      "name": "getAllTransactions",
      "outputs": [
        {
          "components": [
            {
              "internalType": "address",
              "name": "sender",
              "type": "address"
            },
            {
              "internalType": "address",
              "name": "receiver",
              "type": "address"
            },
            {
              "internalType": "uint256",
              "name": "amount",
              "type": "uint256"
            },
            {
              "internalType": "string",
              "name": "message",
              "type": "string"
            },
            {
              "internalType": "uint256",
              "name": "timestamp",
              "type": "uint256"
            },
            {
              "internalType": "string",
              "name": "keyword",
              "type": "string"
            }
          ],
          "internalType": "struct Transactions.TransferStruct[]",
          "name": "",
          "type": "tuple[]"
        }
      ],
      "stateMutability": "view",
      "type": "function"
    },
    {
      "inputs": [],
      "name": "getTransactionCount",
      "outputs": [
        {
          "internalType": "uint256",
          "name": "",
          "type": "uint256"
        }
      ],
      "stateMutability": "view",
      "type": "function"
    },
    {
      "inputs": [],
      "name": "getUserTransactions",
      "outputs": [
        {
          "components": [
            {
              "internalType": "address",
              "name": "sender",
              "type": "address"
            },
            {
              "internalType": "address",
              "name": "receiver",
              "type": "address"
            },
            {
              "internalType": "uint256",
              "name": "amount",
              "type": "uint256"
            },
            {
              "internalType": "string",
              "name": "message",
              "type": "string"
            },
            {
              "internalType": "uint256",
              "name": "timestamp",
              "type": "uint256"
            },
            {
              "internalType": "string",
              "name": "keyword",
              "type": "string"
            }
          ],
          "internalType": "struct Transactions.TransferStruct[]",
          "name": "",
          "type": "tuple[]"
        }
      ],
      "stateMutability": "nonpayable",
      "type": "function"
    }
  ],
  "bytecode": "0x608060405234801561001057600080fd5b5061126e806100206000396000f3fe608060405234801561001057600080fd5b506004361061004c5760003560e01c806327506f53146100515780632e7700f01461006f5780636fe691dc1461008d578063cc2d7ead146100ab575b600080fd5b6100596100c7565b6040516100669190610d17565b60405180910390f35b61007761030a565b6040516100849190610d48565b60405180910390f35b610095610313565b6040516100a29190610d17565b60405180910390f35b6100c560048036038101906100c09190610f16565b6107e0565b005b60606001805480602002602001604051908101604052809291908181526020016000905b8282101561030157838290600052602060002090600602016040518060c00160405290816000820160009054906101000a900473ffffffffffffffffffffffffffffffffffffffff1673ffffffffffffffffffffffffffffffffffffffff1673ffffffffffffffffffffffffffffffffffffffff1681526020016001820160009054906101000a900473ffffffffffffffffffffffffffffffffffffffff1673ffffffffffffffffffffffffffffffffffffffff1673ffffffffffffffffffffffffffffffffffffffff168152602001600282015481526020016003820180546101d490610fe4565b80601f016020809104026020016040519081016040528092919081815260200182805461020090610fe4565b801561024d5780601f106102225761010080835404028352916020019161024d565b820191906000526020600020905b81548152906001019060200180831161023057829003601f168201915b505050505081526020016004820154815260200160058201805461027090610fe4565b80601f016020809104026020016040519081016040528092919081815260200182805461029c90610fe4565b80156102e95780601f106102be576101008083540402835291602001916102e9565b820191906000526020600020905b8154815290600101906020018083116102cc57829003601f168201915b505050505081525050815260200190600101906100eb565b50505050905090565b60008054905090565b606060005b60018054905081101561059e573373ffffffffffffffffffffffffffffffffffffffff16600182815481106103505761034f611015565b5b906000526020600020906006020160000160009054906101000a900473ffffffffffffffffffffffffffffffffffffffff1673ffffffffffffffffffffffffffffffffffffffff16148061041457503373ffffffffffffffffffffffffffffffffffffffff16600182815481106103ca576103c9611015565b5b906000526020600020906006020160010160009054906101000a900473ffffffffffffffffffffffffffffffffffffffff1673ffffffffffffffffffffffffffffffffffffffff16145b1561058b5760026001828154811061042f5761042e611015565b5b906000526020600020906006020190806001815401808255809150506001900390600052602060002090600602016000909190919091506000820160009054906101000a900473ffffffffffffffffffffffffffffffffffffffff168160000160006101000a81548173ffffffffffffffffffffffffffffffffffffffff021916908373ffffffffffffffffffffffffffffffffffffffff1602179055506001820160009054906101000a900473ffffffffffffffffffffffffffffffffffffffff168160010160006101000a81548173ffffffffffffffffffffffffffffffffffffffff021916908373ffffffffffffffffffffffffffffffffffffffff16021790555060028201548160020155600382018160030190805461055290610fe4565b61055d9291906109a2565b5060048201548160040155600582018160050190805461057c90610fe4565b6105879291906109a2565b5050505b808061059690611073565b915050610318565b506002805480602002602001604051908101604052809291908181526020016000905b828210156107d757838290600052602060002090600602016040518060c00160405290816000820160009054906101000a900473ffffffffffffffffffffffffffffffffffffffff1673ffffffffffffffffffffffffffffffffffffffff1673ffffffffffffffffffffffffffffffffffffffff1681526020016001820160009054906101000a900473ffffffffffffffffffffffffffffffffffffffff1673ffffffffffffffffffffffffffffffffffffffff1673ffffffffffffffffffffffffffffffffffffffff168152602001600282015481526020016003820180546106aa90610fe4565b80601f01602080910402602001604051908101604052809291908181526020018280546106d690610fe4565b80156107235780601f106106f857610100808354040283529160200191610723565b820191906000526020600020905b81548152906001019060200180831161070657829003601f168201915b505050505081526020016004820154815260200160058201805461074690610fe4565b80601f016020809104026020016040519081016040528092919081815260200182805461077290610fe4565b80156107bf5780601f10610794576101008083540402835291602001916107bf565b820191906000526020600020905b8154815290600101906020018083116107a257829003601f168201915b505050505081525050815260200190600101906105c1565b50505050905090565b60016000808282546107f291906110bb565b9250508190555060016040518060c001604052803373ffffffffffffffffffffffffffffffffffffffff1681526020018673ffffffffffffffffffffffffffffffffffffffff16815260200185815260200184815260200142815260200183815250908060018154018082558091505060019003906000526020600020906006020160009091909190915060008201518160000160006101000a81548173ffffffffffffffffffffffffffffffffffffffff021916908373ffffffffffffffffffffffffffffffffffffffff16021790555060208201518160010160006101000a81548173ffffffffffffffffffffffffffffffffffffffff021916908373ffffffffffffffffffffffffffffffffffffffff160217905550604082015181600201556060820151816003019080519060200190610931929190610a2f565b506080820151816004015560a0820151816005019080519060200190610958929190610a2f565b5050507f416cfa4330a4565f45c2fd2dd4826a83a37443aba2ce6f79477c7355afac35fa338585854286604051610994969594939291906111c9565b60405180910390a150505050565b8280546109ae90610fe4565b90600052602060002090601f0160209004810192826109d05760008555610a1e565b82601f106109e15780548555610a1e565b82800160010185558215610a1e57600052602060002091601f016020900482015b82811115610a1d578254825591600101919060010190610a02565b5b509050610a2b9190610ab5565b5090565b828054610a3b90610fe4565b90600052602060002090601f016020900481019282610a5d5760008555610aa4565b82601f10610a7657805160ff1916838001178555610aa4565b82800160010185558215610aa4579182015b82811115610aa3578251825591602001919060010190610a88565b5b509050610ab19190610ab5565b5090565b5b80821115610ace576000816000905550600101610ab6565b5090565b600081519050919050565b600082825260208201905092915050565b6000819050602082019050919050565b600073ffffffffffffffffffffffffffffffffffffffff82169050919050565b6000610b2982610afe565b9050919050565b610b3981610b1e565b82525050565b6000819050919050565b610b5281610b3f565b82525050565b600081519050919050565b600082825260208201905092915050565b60005b83811015610b92578082015181840152602081019050610b77565b83811115610ba1576000848401525b50505050565b6000601f19601f8301169050919050565b6000610bc382610b58565b610bcd8185610b63565b9350610bdd818560208601610b74565b610be681610ba7565b840191505092915050565b600060c083016000830151610c096000860182610b30565b506020830151610c1c6020860182610b30565b506040830151610c2f6040860182610b49565b5060608301518482036060860152610c478282610bb8565b9150506080830151610c5c6080860182610b49565b5060a083015184820360a0860152610c748282610bb8565b9150508091505092915050565b6000610c8d8383610bf1565b905092915050565b6000602082019050919050565b6000610cad82610ad2565b610cb78185610add565b935083602082028501610cc985610aee565b8060005b85811015610d055784840389528151610ce68582610c81565b9450610cf183610c95565b925060208a01995050600181019050610ccd565b50829750879550505050505092915050565b60006020820190508181036000830152610d318184610ca2565b905092915050565b610d4281610b3f565b82525050565b6000602082019050610d5d6000830184610d39565b92915050565b6000604051905090565b600080fd5b600080fd5b6000610d8282610afe565b9050919050565b610d9281610d77565b8114610d9d57600080fd5b50565b600081359050610daf81610d89565b92915050565b610dbe81610b3f565b8114610dc957600080fd5b50565b600081359050610ddb81610db5565b92915050565b600080fd5b600080fd5b7f4e487b7100000000000000000000000000000000000000000000000000000000600052604160045260246000fd5b610e2382610ba7565b810181811067ffffffffffffffff82111715610e4257610e41610deb565b5b80604052505050565b6000610e55610d63565b9050610e618282610e1a565b919050565b600067ffffffffffffffff821115610e8157610e80610deb565b5b610e8a82610ba7565b9050602081019050919050565b82818337600083830152505050565b6000610eb9610eb484610e66565b610e4b565b905082815260208101848484011115610ed557610ed4610de6565b5b610ee0848285610e97565b509392505050565b600082601f830112610efd57610efc610de1565b5b8135610f0d848260208601610ea6565b91505092915050565b60008060008060808587031215610f3057610f2f610d6d565b5b6000610f3e87828801610da0565b9450506020610f4f87828801610dcc565b935050604085013567ffffffffffffffff811115610f7057610f6f610d72565b5b610f7c87828801610ee8565b925050606085013567ffffffffffffffff811115610f9d57610f9c610d72565b5b610fa987828801610ee8565b91505092959194509250565b7f4e487b7100000000000000000000000000000000000000000000000000000000600052602260045260246000fd5b60006002820490506001821680610ffc57607f821691505b60208210810361100f5761100e610fb5565b5b50919050565b7f4e487b7100000000000000000000000000000000000000000000000000000000600052603260045260246000fd5b7f4e487b7100000000000000000000000000000000000000000000000000000000600052601160045260246000fd5b600061107e82610b3f565b91507fffffffffffffffffffffffffffffffffffffffffffffffffffffffffffffffff82036110b0576110af611044565b5b600182019050919050565b60006110c682610b3f565b91506110d183610b3f565b9250827fffffffffffffffffffffffffffffffffffffffffffffffffffffffffffffffff0382111561110657611105611044565b5b828201905092915050565b61111a81610b1e565b82525050565b6000819050919050565b600061114561114061113b84610afe565b611120565b610afe565b9050919050565b60006111578261112a565b9050919050565b60006111698261114c565b9050919050565b6111798161115e565b82525050565b600082825260208201905092915050565b600061119b82610b58565b6111a5818561117f565b93506111b5818560208601610b74565b6111be81610ba7565b840191505092915050565b600060c0820190506111de6000830189611111565b6111eb6020830188611170565b6111f86040830187610d39565b818103606083015261120a8186611190565b90506112196080830185610d39565b81810360a083015261122b8184611190565b905097965050505050505056fea2646970667358221220796477cacf4138c0d990bd0a8d9e673cfceb5ac9b2c48dd398244e858f045c3464736f6c634300080d0033",
  "linkReferences": {},
  "deployedLinkReferences": {}
}